:020000040800F2
:1000000000000420010600082D0500082F05000847
:100010003105000833050008350500080000000020
:10002000000000000000000000000000370500088C
:1000300039050008000000003B0500083D050008E8
:100040005106000851060008510600085106000834
:100050005106000851060008510600085106000824
:100060005106000851060008510600085106000814
:10007000510600085106000845050008550500080E
:1000800051060008510600085106000851060008F4
:1000900051060008510600085106000851060008E4
:1000A00051060008510600085106000851060008D4
:1000B00051060008510600085106000851060008C4
:1000C00051060008510600085106000851060008B4
:1000D00051060008510600085106000851060008A4
:1000E0005106000851060008510600085106000894
:1000F0005106000851060008510600085106000884
:100100005106000851060008510600085106000873
:100110005106000851060008510600085106000863
:100120005106000851060008510600085106000853
:100130005106000851060008510600085106000843
:100140005106000851060008510600085106000833
:100150005106000851060008510600085106000823
:100160005106000851060008510600085106000813
:100170005106000851060008510600080000000062
:1001800051060008510600085106000851060008F3
:1001900051060008510600085106000851060008E3
:0C01A00051060008510600080000000095
:1001AC000348044B834202D0034B03B118477047FA
:1001BC001000002010000020000000000548064B35
:1001CC001B1AD90F01EBA301491002D0034B03B149
:1001DC00184770471000002010000020000000009D
:1001EC0010B5064C237843B9FFF7DAFF044B13B173
:1001FC000448AFF300800123237010BD10000020D1
:10020C00000000004C1B000808B5054B1BB105494C
:10021C000548AFF30080BDE80840FFF7CFBF00BF33
:10022C0000000000140000204C1B000800B583B037
:10023C000E4B9A6C42F001029A649B6C03F0010322
:10024C000193019B002211460E2000F09BFA0E2018
:10025C0000F0A8FA002211460F2000F093FA0F20AC
:10026C0000F0A0FA03B05DF804FB00BF00100240E0
:10027C0000B58BB005A9002305934B608B60CB6058
:10028C000B6103F1804303F50433DA6C42F0040292
:10029C00DA64DA6C02F004020192019ADA6C42F030
:1002AC008002DA64DA6C02F080020292029ADA6C52
:1002BC0042F00202DA64DA6C02F002020392039A50
:1002CC00DA6C42F00102DA64DB6C03F00103049394
:1002DC00049B4FF4004305934FF488130693034893
:1002EC0000F05CFB0BB05DF804FB00BF000800489D
:1002FC0072B6FEE700B597B04422002105A801F0C4
:10030C0041FB0023009301930293039304934FF456
:10031C00007000F045FCD8B9022305934FF48073AC
:10032C0008934023099300230F9305A800F018FDB0
:10033C0080B90F23009301230193002102910391B3
:10034C000491684601F04AF830B917B05DF804FB27
:10035C00FFF7CEFFFFF7CCFFFFF7CAFF08B500F0A1
:10036C009BF9FFF7C7FFFFF783FFFFF75FFF00F075
:10037C0003F800F0F3F8FEE708B51148114B0360E1
:10038C004FF482734360002383604FF4E062C260D9
:10039C0002220261012242614FF40072826110223A
:1003AC00C2610362436283620722C26203634363D6
:1003BC0001F0D8F800B908BDFFF79AFFFBE700BFC2
:1003CC00BC000020003800402DE9F04788B0002325
:1003DC000393049305930693079302683D4B9A424B
:1003EC0002D008B0BDE8F087044603F5EC339A6DF3
:1003FC0042F480429A659A6D02F480420092009A0F
:10040C00DA6C42F00402DA64DA6C02F00402019253
:10041C00019ADA6C42F00202DA64DB6C03F002033C
:10042C000293029B022703970497032606960796CE
:10043C000DF10C08DFF8A0A04146504600F0AEFAD2
:10044C000423039304970025059506964FF00509A0
:10045C00CDF81C904146504600F0A0FA4FF4806352
:10046C000393049705950696CDF81C9041461B48BE
:10047C0000F094FA1A481B4B03600123436085601B
:10048C00C5608023036145618561C561056200F02B
:10049C00A1F9C0B9124BA3659C621348134B0360BE
:1004AC0001234360102383600023C3608022026118
:1004BC0043618361C361036200F08CF930B90A4B6C
:1004CC0063659C628DE7FFF713FFE3E7FFF710FF0F
:1004DC00F5E700BF00380040000800480004004861
:1004EC0074000020440002402C0000205800024000
:1004FC0082B00A4B1A6E42F001021A661A6E02F0B2
:10050C0001020092009A9A6D42F080529A659B6D9E
:10051C0003F080530193019B02B07047001002401E
:10052C00FEE7FEE7FEE7FEE7FEE770477047704721
:10053C0008B500F0C1F808BD08B5024800F0CCF9C8
:10054C0008BD00BF7400002008B5024800F0C4F9D3
:10055C0008BD00BF2C0000207047000000B589B01A
:10056C00002304930593069307930193029303933B
:10057C0014484FF0804202600F2242608360124A9E
:10058C00C2600361836101F0F5F890B94FF48053B8
:10059C00049304A90B4801F029F968B900230193CD
:1005AC00039301A9074801F0A1F940B909B05DF81E
:1005BC0004FBFFF79DFEE9E7FFF79AFEEEE7FFF776
:1005CC0097FEF3E7200100203F420F000368B3F1D0
:1005DC00804F00D0704782B003F504339A6D42F01F
:1005EC0001029A659B6D03F001030193019B02B01C
:1005FC0070470000DFF834D0FFF7AEFF0C480D4910
:10060C000D4A002302E0D458C4500433C4188C4261
:10061C00F9D30A4A0A4C002301E013600432A242C7
:10062C00FBD301F0FDF9FFF799FEFEE70000042073
:10063C000000002010000020B01B0008100000205B
:10064C0008030020FEE70000104B1B780BB90120BB
:10065C00704710B504464FF47A70B0FBF3F30C4AB4
:10066C001068B0FBF3F000F0A1F868B90F2C01D9B9
:10067C0001200AE0002221464FF0FF3000F082F802
:10068C00044B1C60002000E0012010BD0400002081
:10069C00000000200800002010B5032000F060F8D6
:1006AC000F20FFF7D1FF10B10124204610BD0446E6
:1006BC00FFF71EFFF9E70000034B1B78034A116894
:1006CC000B441360704700BF040000206C01002035
:1006DC00014B1868704700BF6C010020002807DB35
:1006EC0000F01F02400901239340024A42F82030D7
:1006FC00704700BF00E100E0002808DB0901C9B227
:10070C0000F1604000F5614080F80013704700F084
:10071C000F000901C9B2014B1954704714ED00E0E8
:10072C0000B500F00700C0F1070CBCF1040F28BFA6
:10073C004FF0040C031D062B0FD9C31E4FF0FF3EC8
:10074C000EFA0CF021EA000199400EFA03FE22EA9F
:10075C000E0241EA02005DF804FB0023EEE7000004
:10076C00074AD36823F4E0631B041B0C000200F45B
:10077C00E060034343F0BF6343F40033D36070473E
:10078C0000ED00E010B50446054BD868C0F302201C
:10079C00FFF7C6FF01462046FFF7AEFF10BD00BFB6
:1007AC0000ED00E008B5FFF799FF08BD0138B0F186
:1007BC00807F0BD24FF0E0235861054AF02182F87C
:1007CC0023100020986107221A617047012070479E
:1007DC0000ED00E0002870D010B403460168384AE0
:1007EC00914247D8374A0A443748A0FB0202120903
:1007FC0092005A64354A1A64022283F8252008684C
:10080C006FF30E109A68DC6822431C6922435C6902
:10081C0022439C692243DC6922431C6A2243024323
:10082C000A609A68B2F5804F1BD0196C274A914226
:10083C002BD0264AD2F8A814586C00F01C0C0F20B0
:10084C0000FA0CF021EA0001C2F8A814D2F8A8149E
:10085C0058685C6C04F01C0C00FA0CF00143C2F8F4
:10086C00A8140020D863012283F8252083F82400E3
:10087C0010BC7047164A0A441348A0FB0202120926
:10088C0092005A64134A1A64B6E7D2F8A810586C4E
:10089C0000F01C0C0F2000FA0CF021EA0001C2F849
:1008AC00A810D2F8A81058685C6C04F01C0C00FA64
:1008BC000CF00143C2F8A810D3E70120704700BF29
:1008CC0007040240F8FFFDBFCDCCCCCC00000240A9
:1008DC00F8FBFDBF0004024038B5036C19680468CE
:1008EC002568436C03F01C0304229A400A4215D07D
:1008FC0015F0040F12D0236813F0200F03D12368D6
:10090C0023F004032360436C03F01C02016C0423EA
:10091C0093404B60036B03B1984738BD02229A4059
:10092C000A421CD015F0020F19D0236813F0200FC7
:10093C0006D1236823F00A032360012380F82530B5
:10094C00436C03F01C02016C022393404B600023A8
:10095C0080F82430C36A002BDFD09847DDE70822EB
:10096C0002FA03F30B42D8D015F0080FD5D0236848
:10097C0023F00E032360436C03F01C03016C012273
:10098C0002FA03F34B60C26380F82520002380F841
:10099C002430436B002BC0D09847BEE770B582B0B3
:1009AC00002365E085685E000324B44025EA040555
:1009BC00CC68B4402C438460456825EA0C054C682F
:1009CC00C4F300149C402C43446063E0DD080835FC
:1009DC0050F8254003F0070C4FEA8C0C4FF00F0E2B
:1009EC000EFA0CFE24EA0E0E0C6904FA0CF444EA1E
:1009FC000E0440F8254064E0072400E0002404FACB
:100A0C000EF42C430CF1020C5D4D45F82C405D4C62
:100A1C00A568D44325EA0206D1F804C01CF4801F53
:100A2C0001D042EA0506574DAE60ED6804EA0506B2
:100A3C00D1F804C01CF4001F01D042EA0506514D48
:100A4C00EE606D6804EA0506D1F804C01CF4003FA2
:100A5C0001D042EA05064B4D6E602D682C404E6865
:100A6C0016F4803F01D042EA0504464A1460013373
:100A7C000A6832FA03F400F081804FF0010C0CFA92
:100A8C0003FC1CEA0202F2D04C6804F00304013CA3
:100A9C00012C87D94C6804F00304032C0CD0C468D7
:100AAC005D004FF0030C0CFA05FC24EA0C0C8C686E
:100ABC00AC4044EA0C04C4604C6804F00304022CFF
:100ACC0084D004684FEA430E4FF0030C0CFA0EFC72
:100ADC0024EA0C0C4C6804F0030404FA0EF444EA07
:100AEC000C0404604C6814F4403FC0D0264C256EB6
:100AFC0045F001052566246E04F001040194019C67
:100B0C004FEA930C0CF102051D4C54F8255003F0E0
:100B1C00030E4FEA8E0E0F2404FA0EF425EA040598
:100B2C00B0F1904F3FF46AAF184CA0421AD004F5C4
:100B3C008064A04218D004F58064A04216D004F55D
:100B4C008064A04214D004F58064A04212D004F555
:100B5C008064A04210D004F58064A0423FF44CAFF6
:100B6C0008244CE701244AE7022448E7032446E71B
:100B7C00042444E7052442E7062440E702B070BD94
:100B8C000000014000040140001002400004004835
:100B9C00024B186800F4C060704700BF0070004042
:100BAC00B0F5007F0FD01F4B1B6803F4C063B3F587
:100BBC00806F34D01B4A136823F4C06343F4806302
:100BCC00136000207047174B1B6803F4C063B3F528
:100BDC00007F20D0134A136823F4C06343F40073DE
:100BEC001360114B1B68322202FB03F30F4AA2FB6A
:100BFC0003239B0C013300E0013B0A4A526912F4B7
:100C0C00806F01D0002BF7D1064B5B6913F4806F1A
:100C1C0003D100207047002070470320704700204C
:100C2C00704700BF007000400000002083DE1B43B3
:100C3C0030B583B00446204B9B6D13F0805F0BD016
:100C4C00FFF7A6FFB0F5007F17D0802C1FD82DD052
:100C5C00702C2DD000211BE0174DAB6D43F0805351
:100C6C00AB65AB6D03F080530193019BFFF790FFD5
:100C7C00AB6D23F08053AB65E4E7802C03D9A02C3B
:100C8C0003D9022104E0002102E0012100E003214C
:100C9C000A4A136823F007030B431360136803F02D
:100CAC0007038B4206D1002003B030BD0221EFE7D1
:100CBC000121EDE70120F7E700100240002002407F
:100CCC00244A9368D26802F0030213F00C0309D093
:100CDC000C2B05D0042B39D0082B39D000200FE079
:100CEC00012AF7D11B4A126812F0080F0CD1194ACD
:100CFC00D2F89420C2F30322174951F8220013B101
:100D0C000C2B06D000207047124A1268C2F3031253
:100D1C00F2E7104BDB6803F00303023B012B13D902
:100D2C000C49CA68C2F302120132CB68C3F3062322
:100D3C0000FB03F3B3FBF2F3C868C0F3416001306E
:100D4C004000B3FBF0F070470448E9E703487047F4
:100D5C000248704700100240641B00080024F40095
:100D6C00002800F02283F0B583B00446964B9D68B2
:100D7C0005F00C05DE6806F00306036813F0100F8F
:100D8C005AD0E5B10C2D18D0A369002B00F0BB8014
:100D9C008D4A136843F001031360FFF799FC074673
:100DAC00894B1B6813F0020F40F09A80FFF790FC00
:100DBC00C01B0228F4D9032002E3012EE4D1824B9C
:100DCC001B6813F0020F03D0A369002B00F0EF8215
:100DDC00206A7D4B1B6813F0080F5BD07A4B1B68A5
:100DEC0003F0F00398425CD8774B1A6842F0080283
:100DFC001A601A6822F0F002216A0A431A605A68D3
:100E0C0022F47F42E16942EA01225A60002D60D04F
:100E1C00FFF756FF6C4B9B68C3F303136B4AD35C11
:100E2C0003F01F03D8406A4B18606A4B1868FFF731
:100E3C000BFC002840F0C482236813F0010F00F073
:100E4C008180082D75D00C2D71D06368B3F5803F6F
:100E5C0000F09780B3F5A02F00F099805A4B1A68D8
:100E6C0022F480321A601A6822F480221A606368B5
:100E7C00002B00F09980FFF72BFC0746524B1B68A8
:100E8C0013F4003F5ED1FFF723FCC01B6428F5D997
:100E9C00032095E24C4BD3F894301B0903F0F0037C
:100EAC00A0E7FFF7C5FE002840F08382464B1A6886
:100EBC0042F008021A601A6822F0F002216A0A4312
:100ECC001A605A6822F47F42E16942EA01225A60B0
:100EDC009EE7206AFFF7ACFE002899D001206FE254
:100EEC00394B1A6842F008021A601A6822F0F002B4
:100EFC00216A0A431A605A6822F47F42E16942EA85
:100F0C0001225A6098E7304A136823F001031360FA
:100F1C00FFF7DEFB07462C4B1B6813F0020F8BD040
:100F2C00FFF7D6FBC01B0228F5D9032048E2032E9D
:100F3C008BD1254B1B6813F4003F03D06368002B47
:100F4C0000F03982236813F0020F58D0042D45D0DD
:100F5C000C2D41D0E368002B77D01B4A136843F467
:100F6C0080731360FFF7B4FB0646174B1B6813F432
:100F7C00806F61D1FFF7ACFB801B0228F5D90320F1
:100F8C001EE2114A136843F4803313606FE703F1D8
:100F9C008043A3F53C331A6842F480221A601A6825
:100FAC0042F480321A6062E7FFF792FB0746064B69
:100FBC001B6813F4003FC5D0FFF78AFBC01B6428E5
:100FCC00F5D90320FCE100BF00100240941B00087F
:100FDC000000002008000020022EBBD1A74B1B688C
:100FEC0013F4806F03D0E368002B00F0E681A34A72
:100FFC00536823F0FE43216943EA0163536023687D
:10100C0013F0080F4CD063699BB39C4AD2F8943010
:10101C0043F00103C2F89430FFF75AFB0646974B96
:10102C00D3F8943013F0020F3AD1FFF751FB801B29
:10103C000228F4D90320C3E1904A536823F0FE43FD
:10104C00216943EA01635360D9E78C4A136823F49E
:10105C0080731360FFF73CFB0646884B1B6813F448
:10106C00806FCCD0FFF734FB801B0228F5D903200E
:10107C00A6E1824AD2F8943023F00103C2F89430EE
:10108C00FFF726FB06467D4BD3F8943013F0020F86
:10109C0006D0FFF71DFB801B0228F4D903208FE13B
:1010AC00236813F0040F7AD0744B9B6D13F0805FA0
:1010BC0036D1724B9A6D42F080529A659B6D03F05B
:1010CC0080530193019B01266D4B1B6813F4807FA9
:1010DC0028D0A368012B39D0052B3FD0674BD3F810
:1010EC00902022F00102C3F89020D3F8902022F037
:1010FC000402C3F89020A368002B3DD0FFF7E8FA58
:10110C0007465E4BD3F8903013F0020F46D1FFF731
:10111C00DFFAC01B41F288339842F2D903204FE129
:10112C000026D1E7564A136843F480731360FFF727
:10113C00CFFA0746524B1B6813F4807FC9D1FFF7D7
:10114C00C7FAC01B0228F5D9032039E14B4AD2F863
:10115C00903043F00103C2F89030CCE7474BD3F802
:10116C00902042F00402C3F89020D3F8902042F073
:10117C000102C3F89020BEE7FFF7AAFA07463F4BDF
:10118C00D3F8903013F0020F08D0FFF7A1FAC01B70
:10119C0041F288339842F2D9032011E1E6B9236871
:1011AC0013F0200F35D0636AE3B1344AD2F898308B
:1011BC0043F00103C2F89830FFF78AFA06462F4B2A
:1011CC00D3F8983013F0020F23D1FFF781FA801B6C
:1011DC000228F4D90320F3E0284A936D23F08053BE
:1011EC009365DCE7254AD2F8983023F00103C2F866
:1011FC009830FFF76DFA0646204BD3F8983013F071
:10120C00020F06D0FFF764FA801B0228F4D90320E2
:10121C00D6E0A36A002B00F0D280022B17D00C2D45
:10122C0000F0D480154A136823F080731360FFF725
:10123C004FFA0446114B1B6813F0007F00F0AE8090
:10124C00FFF746FA001B0228F4D90320B8E00B4B39
:10125C00DB6803F00301E26A914213D00C2D00F01D
:10126C00B180064B1B6813F0806F40F0AD80034BD0
:10127C001B6813F0805F2FD00120A1E0001002400A
:10128C000070004003F07002216B0139B2EB011FBA
:10129C00E4D103F4FE42616BB2EB012FDED103F01B
:1012AC007842A16BB2EBC16FD8D103F4C001E26BF1
:1012BC005208013AB1EB425FD0D103F0C063226C0B
:1012CC005208013AB3EB426FC8D1414B1B6813F083
:1012DC00007F49D0002073E03D4A136823F08073EF
:1012EC001360FFF7F5F90546394B1B6813F0007FC7
:1012FC0006D0FFF7EDF9401B0228F5D903205FE07B
:10130C00334AD36833491940E36A206B013843EA06
:10131C000013606B43EA0023E06B4008013843EA9A
:10132C004053206C4008013843EA4063A06B43EA09
:10133C00C0631943D160136843F080731360D368A2
:10134C0043F08073D360FFF7C3F90446204B1B684E
:10135C0013F0007F06D1FFF7BBF9001B0228F5D96B
:10136C0003202DE000202BE0194B1A6842F080720C
:10137C001A60DA6842F08072DA60FFF7A9F9044665
:10138C00134B1B6813F0007F06D1FFF7A1F9031B69
:10139C00022BF5D9032013E0002011E00C4AD16890
:1013AC000D4B0B40D36000200AE001207047012058
:1013BC0006E0012004E0012002E0012000E0002012
:1013CC0003B0F0BD0120FBE70120F9E70120F7E7AE
:1013DC00001002408C809D01FCFFEEFE002800F006
:1013EC00AF8070B50D460446594B1B6803F00703DC
:1013FC008B420BD2564A136823F007030B4313603E
:10140C00136803F007038B4240F09C80236813F0B1
:10141C00020F0CD0A2684F4B9B6803F0F0039A426A
:10142C0005D94C498B6823F0F0031A438A60236872
:10143C0013F0010F39D06368032B09D0022B26D08F
:10144C0063BB444A126812F0020F06D1012076E009
:10145C00404A126812F0007F76D03E498A6822F02A
:10146C00030213438B60FFF733F90646394B9B6835
:10147C0003F00C036268B3EB820F16D0FFF728F968
:10148C00801B41F288339842F0D9032057E0314A4F
:10149C00126812F4003FE0D1012050E02D4A12688E
:1014AC0012F4806FD9D1012049E0236813F0020FA8
:1014BC000CD0A268274B9B6803F0F0039A4205D22C
:1014CC0024498B6823F0F0031A438A60204B1B6875
:1014DC0003F00703AB420AD91D4A136823F0070334
:1014EC002B431360136803F00703AB422ED1236820
:1014FC0013F0040F06D0174A936823F4E063E168F5
:10150C000B439360236813F0080F07D0114A9368BC
:10151C0023F46053216943EAC1039360FFF7D0FBC6
:10152C000C4B9B68C3F303130B4AD35C03F01F03F0
:10153C00D8400A4B18600A4B1868FFF785F870BD45
:10154C00012070470120FAE70120F8E70120F6E7B7
:10155C000020024000100240941B000800000020F4
:10156C000800002000286AD010B50446436A33B93D
:10157C004368B3F5827F05D00023C36102E00023EA
:10158C00036143610023A36294F85D30002B4DD0BE
:10159C00022384F85D302268136823F04003136043
:1015AC00E368B3F5E06F47D90022B3F5706F04D050
:1015BC00B3F5E06F01D00023A362636803F4827378
:1015CC00A16801F404410B43216901F002010B43B2
:1015DC00616901F001010B43A16901F400710B4336
:1015EC00E16901F038010B43216A01F080010B43E2
:1015FC00A16A01F4005120680B430360638B03F074
:10160C000403616A01F010010B43616B01F00801E6
:10161C000B43E16801F470610B43216813434B6089
:10162C0000202066012384F85D3010BD84F85C3006
:10163C002046FEF7C9FEABE74FF48052B5E7012018
:10164C00704710B4036A046A24F0010404628469CC
:10165C0024F0F00C4CEA021223F00A030B438261D3
:10166C00036210BC704710B4036A046A24F01004BF
:10167C000462846924F4704C4CEA023223F0A00317
:10168C0043EA01138261036210BC7047836823F044
:10169C0070030B4343F00703836070470368344ABD
:1016AC00904212D0B0F1804F0FD0A2F594329042FC
:1016BC000BD002F58062904207D002F58062904216
:1016CC0003D002F59432904203D123F070034A68A0
:1016DC001343274A90421ED0B0F1804F1BD0A2F585
:1016EC009432904217D002F58062904213D002F5EA
:1016FC00806290420FD002F5943290420BD002F5EA
:10170C004062904207D002F58062904203D002F50D
:10171C008062904203D123F44073CA68134323F0D0
:10172C0080034A69134303608B68C3620B6883624E
:10173C000F4B98420FD003F5006398420BD003F582
:10174C004063984207D003F58063984203D003F5B9
:10175C008063984201D10B690363012343610369E0
:10176C0013F0010F03D0036923F0010303617047E9
:10177C00002C014060B310B5044690F83D3013B313
:10178C00022384F83D30214651F8040BFFF786FF05
:10179C00012384F8483084F83E3084F83F3084F8D4
:1017AC00403084F8413084F8423084F8433084F877
:1017BC00443084F8453084F8463084F8473084F857
:1017CC003D30002010BD80F83C30FEF7FFFED7E71F
:1017DC000120704710B4846824F47F4C42EA032241
:1017EC000A4342EA0C02826010BC704790F83C300D
:1017FC00012B76D010B50446012380F83C3002232F
:10180C0080F83D3002689068374B034093600B685A
:10181C00602B4CD023D8402B54D011D8202B03D084
:10182C000AD80BB1102B05D119462068FFF72EFFF3
:10183C00002028E0012026E0302BF5D0012022E00A
:10184C00502B0AD1CA6849682068FFF7FAFE50216C
:10185C002068FFF71BFF002015E0012013E0B3F513
:10186C00805F3AD0B3F5005F14D0702B37D1CB68C2
:10187C004A6889682068FFF7ADFF2268936843F0D7
:10188C00770393600020012384F83D30002384F813
:10189C003C3010BDCB684A6889682068FFF79AFF16
:1018AC002268936843F4804393600020EBE7CA6896
:1018BC0049682068FFF7D7FE60212068FFF7E6FE35
:1018CC000020E0E7CA6849682068FFF7BAFE4021AB
:1018DC002068FFF7DBFE0020D5E70020D3E70120CE
:1018EC00D1E70220704700BF8800FEFF90F83C2033
:1018FC00012A42D030B40346012280F83C20022257
:10190C0080F83D200068426884681D4DA84203D0D1
:10191C0005F50065A84203D122F470024D682A43F4
:10192C0022F070020D682A4342601A681448824201
:10193C0016D0B2F1804F13D0A0F5943082420FD064
:10194C0000F5806082420BD000F58060824207D0A7
:10195C0000F59430824203D000F54060824204D1FD
:10196C0024F08004896821439160012283F83D2092
:10197C00002083F83C0030BC70470220704700BF49
:10198C00002C0140830730B546D08418844604E00F
:10199C0003F8011B9D0704D09C46A4456346F7D170
:1019AC0030BD013A0244A2EB0C02032A29D9CCB275
:1019BC0004EB04240F2A04EB04442FD9A2F1100CDD
:1019CC002CF00F0C03F11005AC44C3E90044C3E93F
:1019DC00024410336345F8D112F00C0F02F00F0ED5
:1019EC0018D02EF0030C9C44AEF104051A4642F8B4
:1019FC00044B6245FBD125F0030404330EF00302C3
:101A0C002344002ACCD0C9B21A4403F8011B9342D8
:101A1C00FBD130BD7246F4E70346C6E79646E0E7D5
:101A2C0070B50F4B0F4DAB42A3EB050607D0B610AC
:101A3C00002455F8043B01349847A642F9D800F02D
:101A4C007FF8094D094B5E1BAB424FEAA60606D048
:101A5C00002455F8043B01349847A642F9D870BDD0
:101A6C00A41B0008A41B0008A41B0008AC1B000846
:101A7C00704700BF704700BF024B13B1024800F023
:101A8C0005B8704700000000A51A000800230146A5
:101A9C001A46184600F014B838B5074D074C2C1BE5
:101AAC00A41005D0013C55F8043D9847002CF9D101
:101ABC00BDE8384000F04AB8B01B0008AC1B000869
:101ACC002DE9F8431B4D0646286898460F4691466B
:101ADC00FFF7CEFF184B1C681CB3286865681F2DD8
:101AEC0022DC4EB96B1C0235636044F82570FFF79D
:101AFC00C1FF0020BDE8F88304EB85010123C1F888
:101B0C008890D4F88821AB401A43022EC4F888215F
:101B1C00C1F80881E6D1D4F88C211A43C4F88C2181
:101B2C00E0E7064C1C60D8E7FFF7A4FF4FF0FF304E
:101B3C00E0E700BF0C0000207401002078010020B9
:101B4C00F8B500BFF8BC08BC9E467047F8B500BF9E
:081B5C00F8BC08BC9E4670476E
:101B6400A0860100400D0300801A060000350C0019
:101B740040420F0080841E0000093D0000127A00DC
:101B84000024F40000366E010048E801006CDC0219
:101B94000000000000000000010203040607080919
:081BA400851A00081502000873
:041BAC00ED0100083F
:101BB00000093D000100000010000000700100203D
:0400000508000601E8
:00000001FF
