:020000040800F2
:1000000000000520B10400088504000887040008EA
:10001000890400088B0400088D040008000000001B
:100020000000000000000000000000008F04000835
:1000300091040008000000009304000895040008E3
:100040000105000801050008010500080105000878
:100050000105000801050008010500080105000868
:100060000105000801050008010500080105000858
:100070000105000801050008010500080105000848
:100080000105000801050008010500080105000838
:100090000105000801050008010500080105000828
:1000A0000105000801050008010500080105000818
:1000B0000105000801050008010500080105000808
:1000C00001050008010500080105000801050008F8
:1000D0009D0400080105000801050008010500084D
:1000E00001050008010500080105000801050008D8
:1000F00001050008010500080105000801050008C8
:1001000001050008010500080105000801050008B7
:1001100001050008010500080105000801050008A7
:100120000105000801050008010500080105000897
:100130000105000801050008010500080105000887
:100140000105000801050008010500080105000877
:100150000105000801050008010500080105000867
:100160000105000801050008010500080105000857
:100170000105000801050008010500080000000055
:100180000105000801050008010500080105000837
:100190000105000801050008010500080105000827
:0C01A00001050008010500080000000037
:1001AC000348044B834202D0034B03B118477047FA
:1001BC001000002010000020000000000548064B35
:1001CC001B1AD90F01EBA301491002D0034B03B149
:1001DC00184770471000002010000020000000009D
:1001EC0010B5064C237843B9FFF7DAFF044B13B173
:1001FC000448AFF300800123237010BD10000020D1
:10020C00000000008816000808B5054B1BB1054915
:10021C000548AFF30080BDE80840FFF7CFBF00BF33
:10022C0000000000140000208816000870B588B08B
:10023C0003AD002403940494059406940794184B7E
:10024C00DA6C42F00402DA64DA6C02F00402009216
:10025C00009ADA6C42F08002DA64DA6C02F0800206
:10026C000192019ADA6C42F00202DA64DB6C03F060
:10027C0002030293029B0B4E22464FF40041304680
:10028C0000F022FB4FF400430393012304930594E5
:10029C0006942946304600F01DFA08B070BD00BF28
:1002AC00001002400008004872B6FEE700B597B097
:1002BC004422002105A801F003F9002300930193C7
:1002CC000293039304934FF4007000F00BFB10BBEC
:1002DC00012205924FF48033069302230F930321DE
:1002EC00109111920A22129213931493159305A84C
:1002FC0000F0D8FB88B90F2300930323019300234C
:10030C000293039304930421684600F009FF30B96B
:10031C0017B05DF804FBFFF7C7FFFFF7C5FFFFF74A
:10032C00C3FF08B500F010F9FFF7C0FFFFF77EFF21
:10033C0000F002F8FEE7000008B50F480F4B036011
:10034C004FF482734360002383604FF44072C260A9
:10035C00036143618361C361036243628362072269
:10036C00C26203630823436300F09EFF00B908BD1B
:10037C00FFF79AFFFBE700BF2C000020003800407D
:10038C002DE9F04389B0002303930493059306935E
:10039C0007930268294B9A4202D009B0BDE8F0835A
:1003AC0003F5EC339A6D42F480429A659A6D02F42F
:1003BC0080420092009ADA6C42F00402DA64DA6C41
:1003CC0002F004020192019ADA6C42F00202DA6441
:1003DC00DB6C03F002030293029B02260396049645
:1003EC0003250695079503AFDFF854903946484628
:1003FC0000F070F9042303930496002405940695E9
:10040C004FF00508CDF81C803946484600F062F9DB
:10041C004FF4A0530393049605940695CDF81C80D5
:10042C003946084800F056F922462146242000F0AF
:10043C0001F9242000F00EF9AFE700BF00380040AE
:10044C00000800480004004882B00A4B1A6E42F0C3
:10045C0001021A661A6E02F001020092009A9A6D5D
:10046C0042F080529A659B6D03F080530193019B7F
:10047C0002B0704700100240FEE7FEE7FEE7FEE721
:10048C00FEE770477047704708B500F06DF808BD7F
:10049C0008B5024800F078FF08BD00BF2C00002012
:1004AC0070470000DFF834D0FFF7FAFF0C480D4915
:1004BC000D4A002302E0D458C4500433C4188C42B3
:1004CC00F9D30A4A0A4C002301E013600432A24219
:1004DC00FBD301F043F8FFF724FFFEE700000520F3
:1004EC000000002010000020EC1600081000002076
:1004FC002C020020FEE70000104B1B780BB90120EA
:10050C00704710B504464FF47A70B0FBF3F30C4A05
:10051C001068B0FBF3F000F0A1F868B90F2C01D90A
:10052C0001200AE0002221464FF0FF3000F082F853
:10053C00044B1C60002000E0012010BD04000020D2
:10054C00000000200800002010B5032000F060F827
:10055C000F20FFF7D1FF10B10124204610BD044637
:10056C00FFF772FFF9E70000034B1B78034A116891
:10057C000B441360704700BF040000209000002063
:10058C00014B1868704700BF90000020002807DB63
:10059C0000F01F02400901239340024A42F8203028
:1005AC00704700BF00E100E0002808DB0901C9B278
:1005BC0000F1604000F5614080F80013704700F0D6
:1005CC000F000901C9B2014B1954704714ED00E03A
:1005DC0000B500F00700C0F1070CBCF1040F28BFF8
:1005EC004FF0040C031D062B0FD9C31E4FF0FF3E1A
:1005FC000EFA0CF021EA000199400EFA03FE22EAF1
:10060C000E0241EA02005DF804FB0023EEE7000055
:10061C00074AD36823F4E0631B041B0C000200F4AC
:10062C00E060034343F0BF6343F40033D36070478F
:10063C0000ED00E010B50446054BD868C0F302206D
:10064C00FFF7C6FF01462046FFF7AEFF10BD00BF07
:10065C0000ED00E008B5FFF799FF08BD0138B0F1D7
:10066C00807F0BD24FF0E0235861054AF02182F8CD
:10067C0023100020986107221A61704701207047EF
:10068C0000ED00E008B590F82530022B03D00423D0
:10069C00C363012008BD0268136823F00E031360C6
:1006AC000268136823F001031360436C03F01C030E
:1006BC00016C012202FA03F34B6080F82520002321
:1006CC0080F82430836B13B198470020E2E70020B8
:1006DC00E0E7000070B582B0002365E085685E003D
:1006EC000324B44025EA0405CC68B4402C43846050
:1006FC00456825EA0C054C68C4F300149C402C4357
:10070C00446063E0DD08083550F8254003F0070C21
:10071C004FEA8C0C4FF00F0E0EFA0CFE24EA0E0E64
:10072C000C6904FA0CF444EA0E0440F8254064E029
:10073C00072400E0002404FA0EF42C430CF1020C04
:10074C005D4D45F82C405D4CA568D44325EA020666
:10075C00D1F804C01CF4801F01D042EA0506574DA5
:10076C00AE60ED6804EA0506D1F804C01CF4001F65
:10077C0001D042EA0506514DEE606D6804EA0506AB
:10078C00D1F804C01CF4003F01D042EA05064B4DE1
:10079C006E602D682C404E6816F4803F01D042EA02
:1007AC000504464A146001330A6832FA03F400F077
:1007BC0081804FF0010C0CFA03FC1CEA0202F2D00F
:1007CC004C6804F00304013C012C87D94C6804F0FC
:1007DC000304032C0CD0C4685D004FF0030C0CFA1E
:1007EC0005FC24EA0C0C8C68AC4044EA0C04C46094
:1007FC004C6804F00304022C84D004684FEA430EC6
:10080C004FF0030C0CFA0EFC24EA0C0C4C6804F0B0
:10081C00030404FA0EF444EA0C0404604C6814F467
:10082C00403FC0D0264C256E45F001052566246E50
:10083C0004F001040194019C4FEA930C0CF10205A5
:10084C001D4C54F8255003F0030E4FEA8E0E0F2466
:10085C0004FA0EF425EA0405B0F1904F3FF46AAFA8
:10086C00184CA0421AD004F58064A04218D004F5AC
:10087C008064A04216D004F58064A04214D004F524
:10088C008064A04212D004F58064A04210D004F51C
:10089C008064A0423FF44CAF08244CE701244AE7A3
:1008AC00022448E7032446E7042444E7052442E7EE
:1008BC00062440E702B070BD000001400004014076
:1008CC0000100240000400480AB181617047816247
:1008DC0070470000024B186800F4C060704700BFFE
:1008EC0000700040B0F5007F0FD01F4B1B6803F465
:1008FC00C063B3F5806F34D01B4A136823F4C06314
:10090C0043F48063136000207047174B1B6803F49B
:10091C00C063B3F5007F20D0134A136823F4C0637F
:10092C0043F400731360114B1B68322202FB03F378
:10093C000F4AA2FB03239B0C013300E0013B0A4A44
:10094C00526912F4806F01D0002BF7D1064B5B6912
:10095C0013F4806F03D100207047002070470320F0
:10096C0070470020704700BF00700040000000205E
:10097C0083DE1B4330B583B00446204B9B6D13F0D4
:10098C00805F0BD0FFF7A6FFB0F5007F17D0802C4F
:10099C001FD82DD0702C2DD000211BE0174DAB6D26
:1009AC0043F08053AB65AB6D03F080530193019B17
:1009BC00FFF790FFAB6D23F08053AB65E4E7802C21
:1009CC0003D9A02C03D9022104E0002102E001216B
:1009DC0000E003210A4A136823F007030B4313605A
:1009EC00136803F007038B4206D1002003B030BD1F
:1009FC000221EFE70121EDE70120F7E700100240AB
:100A0C0000200240244A9368D26802F0030213F0DB
:100A1C000C0309D00C2B05D0042B39D0082B39D062
:100A2C0000200FE0012AF7D11B4A126812F0080FC0
:100A3C000CD1194AD2F89420C2F30322174951F869
:100A4C00220013B10C2B06D000207047124A1268FA
:100A5C00C2F30312F2E7104BDB6803F00303023B13
:100A6C00012B13D90C49CA68C2F302120132CB68AC
:100A7C00C3F3062300FB03F3B3FBF2F3C868C0F324
:100A8C00416001304000B3FBF0F070470448E9E7E7
:100A9C00034870470248704700100240A016000837
:100AAC000024F400002800F02283F0B583B0044643
:100ABC00964B9D6805F00C05DE6806F0030603688E
:100ACC0013F0100F5AD0E5B10C2D18D0A369002BE0
:100ADC0000F0BB808D4A136843F001031360FFF7ED
:100AEC004FFD0746894B1B6813F0020F40F09A80AC
:100AFC00FFF746FDC01B0228F4D9032002E3012EA8
:100B0C00E4D1824B1B6813F0020F03D0A369002BB6
:100B1C0000F0EF82206A7D4B1B6813F0080F5BD04E
:100B2C007A4B1B6803F0F00398425CD8774B1A6839
:100B3C0042F008021A601A6822F0F002216A0A4395
:100B4C001A605A6822F47F42E16942EA01225A6033
:100B5C00002D60D0FFF756FF6C4B9B68C3F303135B
:100B6C006B4AD35C03F01F03D8406A4B18606A4B86
:100B7C001868FFF7C1FC002840F0C482236813F00A
:100B8C00010F00F08180082D75D00C2D71D0636899
:100B9C00B3F5803F00F09780B3F5A02F00F099805B
:100BAC005A4B1A6822F480321A601A6822F4802296
:100BBC001A606368002B00F09980FFF7E1FC074690
:100BCC00524B1B6813F4003F5ED1FFF7D9FCC01BDE
:100BDC006428F5D9032095E24C4BD3F894301B09CB
:100BEC0003F0F003A0E7FFF7C5FE002840F0838276
:100BFC00464B1A6842F008021A601A6822F0F0029A
:100C0C00216A0A431A605A6822F47F42E16942EA77
:100C1C0001225A609EE7206AFFF7ACFE002899D0AB
:100C2C0001206FE2394B1A6842F008021A601A6808
:100C3C0022F0F002216A0A431A605A6822F47F42B9
:100C4C00E16942EA01225A6098E7304A136823F0BE
:100C5C0001031360FFF794FC07462C4B1B6813F041
:100C6C00020F8BD0FFF78CFCC01B0228F5D9032098
:100C7C0048E2032E8BD1254B1B6813F4003F03D0A5
:100C8C006368002B00F03982236813F0020F58D0F0
:100C9C00042D45D00C2D41D0E368002B77D01B4A96
:100CAC00136843F480731360FFF76AFC0646174B16
:100CBC001B6813F4806F61D1FFF762FC801B022864
:100CCC00F5D903201EE2114A136843F480331360F4
:100CDC006FE703F18043A3F53C331A6842F480229A
:100CEC001A601A6842F480321A6062E7FFF748FC17
:100CFC000746064B1B6813F4003FC5D0FFF740FCBA
:100D0C00C01B6428F5D90320FCE100BF0010024091
:100D1C00D01600080000002008000020022EBBD1D5
:100D2C00A74B1B6813F4806F03D0E368002B00F013
:100D3C00E681A34A536823F0FE43216943EA016329
:100D4C005360236813F0080F4CD063699BB39C4A23
:100D5C00D2F8943043F00103C2F89430FFF710FC42
:100D6C000646974BD3F8943013F0020F3AD1FFF7A5
:100D7C0007FC801B0228F4D90320C3E1904A536876
:100D8C0023F0FE43216943EA01635360D9E78C4A9F
:100D9C00136823F480731360FFF7F2FB0646884B4D
:100DAC001B6813F4806FCCD0FFF7EAFB801B022882
:100DBC00F5D90320A6E1824AD2F8943023F001033E
:100DCC00C2F89430FFF7DCFB06467D4BD3F8943029
:100DDC0013F0020F06D0FFF7D3FB801B0228F4D9C7
:100DEC0003208FE1236813F0040F7AD0744B9B6DB2
:100DFC0013F0805F36D1724B9A6D42F080529A6537
:100E0C009B6D03F080530193019B01266D4B1B6876
:100E1C0013F4807F28D0A368012B39D0052B3FD049
:100E2C00674BD3F8902022F00102C3F89020D3F83E
:100E3C00902022F00402C3F89020A368002B3DD030
:100E4C00FFF79EFB07465E4BD3F8903013F0020F72
:100E5C0046D1FFF795FBC01B41F288339842F2D97B
:100E6C0003204FE10026D1E7564A136843F4807300
:100E7C001360FFF785FB0746524B1B6813F4807F0A
:100E8C00C9D1FFF77DFBC01B0228F5D9032039E13E
:100E9C004B4AD2F8903043F00103C2F89030CCE7C3
:100EAC00474BD3F8902042F00402C3F89020D3F8BB
:100EBC00902042F00102C3F89020BEE7FFF760FBE0
:100ECC0007463F4BD3F8903013F0020F08D0FFF7D2
:100EDC0057FBC01B41F288339842F2D9032011E131
:100EEC00E6B9236813F0200F35D0636AE3B1344AB6
:100EFC00D2F8983043F00103C2F89830FFF740FB6A
:100F0C0006462F4BD3F8983013F0020F23D1FFF77E
:100F1C0037FB801B0228F4D90320F3E0284A936D99
:100F2C0023F080539365DCE7254AD2F8983023F000
:100F3C000103C2F89830FFF723FB0646204BD3F889
:100F4C00983013F0020F06D0FFF71AFB801B022813
:100F5C00F4D90320D6E0A36A002B00F0D280022B38
:100F6C0017D00C2D00F0D480154A136823F0807331
:100F7C001360FFF705FB0446114B1B6813F0007F51
:100F8C0000F0AE80FFF7FCFA001B0228F4D9032016
:100F9C00B8E00B4BDB6803F00301E26A914213D01B
:100FAC000C2D00F0B180064B1B6813F0806F40F0E5
:100FBC00AD80034B1B6813F0805F2FD00120A1E0A4
:100FCC00001002400070004003F07002216B0139E8
:100FDC00B2EB011FE4D103F4FE42616BB2EB012FC3
:100FEC00DED103F07842A16BB2EBC16FD8D103F420
:100FFC00C001E26B5208013AB1EB425FD0D103F071
:10100C00C063226C5208013AB3EB426FC8D1414B1A
:10101C001B6813F0007F49D0002073E03D4A136831
:10102C0023F080731360FFF7ABFA0546394B1B684E
:10103C0013F0007F06D0FFF7A3FA401B0228F5D966
:10104C0003205FE0334AD36833491940E36A206BCD
:10105C00013843EA0013606B43EA0023E06B40085D
:10106C00013843EA4053206C4008013843EA40639E
:10107C00A06B43EAC0631943D160136843F08073DB
:10108C001360D36843F08073D360FFF779FA04469A
:10109C00204B1B6813F0007F06D1FFF771FA001B81
:1010AC000228F5D903202DE000202BE0194B1A68FB
:1010BC0042F080721A60DA6842F08072DA60FFF7F0
:1010CC005FFA0446134B1B6813F0007F06D1FFF741
:1010DC0057FA031B022BF5D9032013E0002011E073
:1010EC000C4AD1680D4B0B40D36000200AE0012064
:1010FC007047012006E0012004E0012002E00120FD
:10110C0000E0002003B0F0BD0120FBE70120F9E76F
:10111C000120F7E7001002408C809D01FCFFEEFEE1
:10112C00002800F0AF8070B50D460446594B1B6883
:10113C0003F007038B420BD2564A136823F00703C4
:10114C000B431360136803F007038B4240F09C8041
:10115C00236813F0020F0CD0A2684F4B9B6803F06E
:10116C00F0039A4205D94C498B6823F0F0031A43DB
:10117C008A60236813F0010F39D06368032B09D000
:10118C00022B26D063BB444A126812F0020F06D120
:10119C00012076E0404A126812F0007F76D03E497A
:1011AC008A6822F0030213438B60FFF7E9F90646C5
:1011BC00394B9B6803F00C036268B3EB820F16D0BB
:1011CC00FFF7DEF9801B41F288339842F0D90320F7
:1011DC0057E0314A126812F4003FE0D1012050E090
:1011EC002D4A126812F4806FD9D1012049E023688E
:1011FC0013F0020F0CD0A268274B9B6803F0F0038E
:10120C009A4205D224498B6823F0F0031A438A6072
:10121C00204B1B6803F00703AB420AD91D4A136825
:10122C0023F007032B431360136803F00703AB424F
:10123C002ED1236813F0040F06D0174A936823F4B9
:10124C00E063E1680B439360236813F0080F07D049
:10125C00114A936823F46053216943EAC1039360F4
:10126C00FFF7D0FB0C4B9B68C3F303130B4AD35C07
:10127C0003F01F03D8400A4B18600A4B1868FFF79D
:10128C003BF970BD012070470120FAE70120F8E717
:10129C000120F6E70020024000100240D0160008A2
:1012AC00000000200800002000286AD010B5044679
:1012BC00436A33B94368B3F5827F05D00023C36119
:1012CC0002E00023036143610023A36294F85D30C4
:1012DC00002B4DD0022384F85D302268136823F074
:1012EC0040031360E368B3F5E06F47D90022B3F510
:1012FC00706F04D0B3F5E06F01D00023A362636874
:10130C0003F48273A16801F404410B43216901F0D9
:10131C0002010B43616901F001010B43A16901F466
:10132C0000710B43E16901F038010B43216A01F0B4
:10133C0080010B43A16A01F4005120680B43036048
:10134C00638B03F00403616A01F010010B43616BC2
:10135C0001F008010B43E16801F470610B43216853
:10136C0013434B6000202066012384F85D3010BDD0
:10137C0084F85C302046FFF703F8ABE74FF480525B
:10138C00B5E701207047704730B585B00446026858
:10139C0051689368C3F3801013F0400F05D113F01C
:1013AC00010F02D011F0400F68D113F0020F02D0E0
:1013BC0011F0800F66D1C3F3401513F0200F03D149
:1013CC0010B913F4807F60D011F0200F5DD070B194
:1013DC0094F85D0003285AD0206E40F0040020667B
:1013EC0000200090D068009090680090009865B143
:1013FC00206E40F001002066002002909068029060
:10140C00106820F040001060029A13F4807F09D01D
:10141C00236E43F0080323660023039323689B6821
:10142C000393039B236E002B2FD02268536823F069
:10143C00E0035360012384F85D3011F0030F2ED0CC
:10144C002268536823F003035360A36D4BB1164A13
:10145C009A63A06DFFF716F918B1236E43F04003A1
:10146C002366636D8BB1104A9A63606DFFF70AF9BE
:10147C0058B1236E43F04003236606E0E36C20462C
:10148C00984702E0236D2046984705B030BD0023F5
:10149C000193D368019393680193019BF5E7204670
:1014AC00FFF771FFF1E700BFB914000808B5806AB7
:1014BC000023A0F84630C387FFF765FF08BD000086
:1014CC00830730B546D08418844604E003F8011B2A
:1014DC009D0704D09C46A4456346F7D130BD013A24
:1014EC000244A2EB0C02032A29D9CCB204EB04244B
:1014FC000F2A04EB04442FD9A2F1100C2CF00F0C82
:10150C0003F11005AC44C3E90044C3E902441033B1
:10151C006345F8D112F00C0F02F00F0E18D02EF01C
:10152C00030C9C44AEF104051A4642F8044B624588
:10153C00FBD125F0030404330EF003022344002AEC
:10154C00CCD0C9B21A4403F8011B9342FBD130BD75
:10155C007246F4E70346C6E79646E0E770B50F4BD4
:10156C000F4DAB42A3EB050607D0B610002455F87F
:10157C00043B01349847A642F9D800F07FF8094D96
:10158C00094B5E1BAB424FEAA60606D0002455F869
:10159C00043B01349847A642F9D870BDE016000808
:1015AC00E0160008E0160008E8160008704700BFB7
:1015BC00704700BF024B13B1024800F005B87047EA
:1015CC0000000000E1150008002301461A461846E9
:1015DC0000F014B838B5074D074C2C1BA41005D0DF
:1015EC00013C55F8043D9847002CF9D1BDE8384032
:1015FC0000F04AB8EC160008E81600082DE9F8438C
:10160C001B4D0646286898460F469146FFF7CEFFBD
:10161C00184B1C681CB3286865681F2D22DC4EB95A
:10162C006B1C0235636044F82570FFF7C1FF002086
:10163C00BDE8F88304EB85010123C1F88890D4F848
:10164C008821AB401A43022EC4F88821C1F80881C6
:10165C00E6D1D4F88C211A43C4F88C21E0E7064C6F
:10166C001C60D8E7FFF7A4FF4FF0FF30E0E700BFA6
:10167C000C000020980000209C000020F8B500BF52
:10168C00F8BC08BC9E467047F8B500BFF8BC08BC57
:04169C009E467047AF
:1016A000A0860100400D0300801A060000350C00E2
:1016B00040420F0080841E0000093D0000127A00A5
:1016C0000024F40000366E010048E801006CDC02E2
:1016D00000000000000000000102030406070809E2
:0816E000C11500081502000805
:0416E800ED01000808
:1016EC0000093D00010000001000000094000020E3
:04000005080004B13A
:00000001FF
